:100000000C9472000C9486000C9486000C9486006C
:100010000C9486000C9486000C9486000C94860048
:100020000C9486000C9486000C9486000C94860038
:100030000C9486000C9486000C9486000C94860028
:100040000C9486000C9486000C9486000C94860018
:100050000C9486000C9486000C9486000C94860008
:100060000C9486000C94F1100C9486000C9486007D
:100070000C9486000C9486000C9486000C948600E8
:100080000C9486000C9486000C9486000C948600D8
:100090000C9486000C9486000C9486000C948600C8
:1000A0000C9486000C9486000C9486000C948600B8
:1000B0000C9486000C9486000C9486000C948600A8
:1000C0000C9486000C9486000C9486000C94860098
:1000D0000C9486000C9486000C9486000C94860088
:1000E0000C94860011241FBECFEFD1E2DEBFCDBF3E
:1000F00000E00CBF22E0A0E0B2E001C01D92A13000
:10010000B207E1F70E94A0000C9414110C940000B7
:10011000259AE0E8F0E0808182608083E1E8F0E009
:1001200080818A61808383E390E09093870080934D
:1001300086008AE190E0909389008093880008957A
:1001400010928000109281000E94011180910002A3
:10015000813609F02EC30E948800809180008F773D
:10016000809380002D982FEF84E491E0215080400F
:100170009040E1F700C000008FE896E00197F1F7AA
:1001800000C00000809180008068809380008FEC28
:1001900097E00197F1F700C00000809180008F7711
:1001A000809380002D9887EE93E00197F1F700C0CF
:1001B0000000809180008068809380008FE193E050
:1001C0000197F1F700C00000809180008F77809345
:1001D00080002D9887EE93E00197F1F700C00000B2
:1001E000809180008068809380008FE193E0019788
:1001F000F1F700C00000809180008F77809380002D
:100200002D988FE599E00197F1F700C000008091EB
:1002100080008068809380008FE193E00197F1F780
:1002200000C00000809180008F77809380002D981F
:100230008FE396E00197F1F700C000008091800005
:100240008068809380008FE193E00197F1F700C010
:100250000000809180008F77809380002D988FE53B
:1002600099E00197F1F700C000008091800080685C
:10027000809380008FE193E00197F1F700C00000C8
:10028000809180008F77809380002D9887EE93E097
:100290000197F1F700C00000809180008068809392
:1002A00080008FE193E00197F1F700C0000080919A
:1002B00080008F77809380002D9887EE93E00197E0
:1002C000F1F700C00000809180008068809380007A
:1002D0008FE193E00197F1F700C00000809180006A
:1002E0008F77809380002D9887EE93E00197F1F748
:1002F00000C00000809180008068809380008FE1C2
:1003000093E00197F1F700C00000809180008F77A3
:10031000809380002D9887EE93E00197F1F700C05D
:100320000000809180008068809380008FE193E0DE
:100330000197F1F700C00000809180008F778093D3
:1003400080002D9887EE93E00197F1F700C0000040
:10035000809180008068809380008FE193E0019716
:10036000F1F700C00000809180008F7780938000BB
:100370002D988FE599E00197F1F700C0000080917A
:1003800080008068809380008FE193E00197F1F70F
:1003900000C00000809180008F77809380002D98AE
:1003A0008FE396E00197F1F700C000008091800094
:1003B0008068809380008FE193E00197F1F700C09F
:1003C0000000809180008F77809380002D988FE7C8
:1003D0009CE00197F1F700C00000809180008068E8
:1003E000809380008FE193E00197F1F700C0000057
:1003F000809180008F77809380002D9887EE93E026
:100400000197F1F700C00000809180008068809320
:1004100080008FE193E00197F1F700C00000809128
:1004200080008F77809380002D988FE599E0019769
:10043000F1F700C000008091800080688093800008
:100440008FE193E00197F1F700C0000080918000F8
:100450008F77809380002D9887EE93E00197F1F7D6
:1004600000C00000809180008068809380008FE150
:1004700093E00197F1F700C00000809180008F7732
:10048000809380002D9887EE93E00197F1F700C0EC
:100490000000809180008068809380008FE193E06D
:1004A0000197F1F700C00000809180008F77809362
:1004B00080002D989FEF24E481E0915020408040FF
:1004C000E1F700C000008FE896E00197F1F700C067
:1004D0000000809180008068809380008FEC97E01E
:1004E0000197F1F700C00000809180008F77809322
:1004F00080002D9887EE93E00197F1F700C000008F
:10050000809180008068809380008FE193E0019764
:10051000F1F700C00000809180008F778093800009
:100520002D9887EE93E00197F1F700C000008091CD
:1005300080008068809380008FE193E00197F1F75D
:1005400000C00000809180008F77809380002D98FC
:100550008FE599E00197F1F700C0000080918000DD
:100560008068809380008FE193E00197F1F700C0ED
:100570000000809180008F77809380002D988FE31A
:1005800096E00197F1F700C000008091800080683C
:10059000809380008FE193E00197F1F700C00000A5
:1005A000809180008F77809380002D988FE599E06F
:1005B0000197F1F700C0000080918000806880936F
:1005C00080008FE193E00197F1F700C00000809177
:1005D00080008F77809380002D9887EE93E00197BD
:1005E000F1F700C000008091800080688093800057
:1005F0008FE193E00197F1F700C000008091800047
:100600008F77809380002D9887EE93E00197F1F724
:1006100000C00000809180008068809380008FE19E
:1006200093E00197F1F700C00000809180008F7780
:10063000809380002D9887EE93E00197F1F700C03A
:100640000000809180008068809380008FE193E0BB
:100650000197F1F700C00000809180008F778093B0
:1006600080002D9887EE93E00197F1F700C000001D
:10067000809180008068809380008FE193E00197F3
:10068000F1F700C00000809180008F778093800098
:100690002D9887EE93E00197F1F700C0000080915C
:1006A00080008068809380008FE193E00197F1F7EC
:1006B00000C00000809180008F77809380002D988B
:1006C0008FE599E00197F1F700C00000809180006C
:1006D0008068809380008FE193E00197F1F700C07C
:1006E0000000809180008F77809380002D988FE3A9
:1006F00096E00197F1F700C00000809180008068CB
:10070000809380008FE193E00197F1F700C0000033
:10071000809180008F77809380002D988FE79CE0F8
:100720000197F1F700C000008091800080688093FD
:1007300080008FE193E00197F1F700C00000809105
:1007400080008F77809380002D9887EE93E001974B
:10075000F1F700C0000080918000806880938000E5
:100760008FE193E00197F1F700C0000080918000D5
:100770008F77809380002D988FE599E00197F1F7AE
:1007800000C00000809180008068809380008FE12D
:1007900093E00197F1F700C00000809180008F770F
:1007A000809380002D9887EE93E00197F1F70C94E9
:1007B000B810823609F045C30E94880080918000FD
:1007C0008F77809380002D989FEF24E481E09150F3
:1007D00020408040E1F700C000008FE297E00197E1
:1007E000F1F700C000008091800080688093800055
:1007F0008FEC97E00197F1F700C000008091800036
:100800008F77809380002D9887EE93E00197F1F722
:1008100000C00000809180008068809380008FE19C
:1008200093E00197F1F700C00000809180008F777E
:10083000809380002D9887EE93E00197F1F700C038
:100840000000809180008068809380008FE193E0B9
:100850000197F1F700C00000809180008F778093AE
:1008600080002D988FE599E00197F1F700C0000016
:10087000809180008068809380008FE193E00197F1
:10088000F1F700C00000809180008F778093800096
:100890002D988FE396E00197F1F700C0000080915A
:1008A00080008068809380008FE193E00197F1F7EA
:1008B00000C00000809180008F77809380002D9889
:1008C0008FE599E00197F1F700C00000809180006A
:1008D0008068809380008FE193E00197F1F700C07A
:1008E0000000809180008F77809380002D9887EEA4
:1008F00093E00197F1F700C00000809180008068CC
:10090000809380008FE193E00197F1F700C0000031
:10091000809180008F77809380002D9887EE93E000
:100920000197F1F700C000008091800080688093FB
:1009300080008FE193E00197F1F700C00000809103
:1009400080008F77809380002D9887EE93E0019749
:10095000F1F700C0000080918000806880938000E3
:100960008FE193E00197F1F700C0000080918000D3
:100970008F77809380002D9887EE93E00197F1F7B1
:1009800000C00000809180008068809380008FE12B
:1009900093E00197F1F700C00000809180008F770D
:1009A000809380002D9887EE93E00197F1F700C0C7
:1009B0000000809180008068809380008FE193E048
:1009C0000197F1F700C00000809180008F7780933D
:1009D00080002D988FE599E00197F1F700C00000A5
:1009E000809180008068809380008FE193E0019780
:1009F000F1F700C00000809180008F778093800025
:100A00002D988FE396E00197F1F700C000008091E8
:100A100080008068809380008FE193E00197F1F778
:100A200000C00000809180008F77809380002D9817
:100A30008FE79CE00197F1F700C0000080918000F3
:100A40008068809380008FE193E00197F1F700C008
:100A50000000809180008F77809380002D9887EE32
:100A600093E00197F1F700C000008091800080685A
:100A7000809380008FE193E00197F1F700C00000C0
:100A8000809180008F77809380002D988FE599E08A
:100A90000197F1F700C0000080918000806880938A
:100AA00080008FE193E00197F1F700C00000809192
:100AB00080008F77809380002D9887EE93E00197D8
:100AC000F1F700C000008091800080688093800072
:100AD0008FE193E00197F1F700C000008091800062
:100AE0008F77809380002D988FE396E00197F1F740
:100AF00000C00000809180008068809380008FE1BA
:100B000093E00197F1F700C00000809180008F779B
:100B1000809380002D989FEF24E481E09150204045
:100B20008040E1F700C000008FE297E00197F1F705
:100B300000C00000809180008068809380008FEC6E
:100B400097E00197F1F700C00000809180008F7757
:100B5000809380002D9887EE93E00197F1F700C015
:100B60000000809180008068809380008FE193E096
:100B70000197F1F700C00000809180008F7780938B
:100B800080002D9887EE93E00197F1F700C00000F8
:100B9000809180008068809380008FE193E00197CE
:100BA000F1F700C00000809180008F778093800073
:100BB0002D988FE599E00197F1F700C00000809132
:100BC00080008068809380008FE193E00197F1F7C7
:100BD00000C00000809180008F77809380002D9866
:100BE0008FE396E00197F1F700C00000809180004C
:100BF0008068809380008FE193E00197F1F700C057
:100C00000000809180008F77809380002D988FE581
:100C100099E00197F1F700C00000809180008068A2
:100C2000809380008FE193E00197F1F700C000000E
:100C3000809180008F77809380002D9887EE93E0DD
:100C40000197F1F700C000008091800080688093D8
:100C500080008FE193E00197F1F700C000008091E0
:100C600080008F77809380002D9887EE93E0019726
:100C7000F1F700C0000080918000806880938000C0
:100C80008FE193E00197F1F700C0000080918000B0
:100C90008F77809380002D9887EE93E00197F1F78E
:100CA00000C00000809180008068809380008FE108
:100CB00093E00197F1F700C00000809180008F77EA
:100CC000809380002D9887EE93E00197F1F700C0A4
:100CD0000000809180008068809380008FE193E025
:100CE0000197F1F700C00000809180008F7780931A
:100CF00080002D9887EE93E00197F1F700C0000087
:100D0000809180008068809380008FE193E001975C
:100D1000F1F700C00000809180008F778093800001
:100D20002D988FE599E00197F1F700C000008091C0
:100D300080008068809380008FE193E00197F1F755
:100D400000C00000809180008F77809380002D98F4
:100D50008FE396E00197F1F700C0000080918000DA
:100D60008068809380008FE193E00197F1F700C0E5
:100D70000000809180008F77809380002D988FE70E
:100D80009CE00197F1F700C000008091800080682E
:100D9000809380008FE193E00197F1F700C000009D
:100DA000809180008F77809380002D9887EE93E06C
:100DB0000197F1F700C00000809180008068809367
:100DC00080008FE193E00197F1F700C0000080916F
:100DD00080008F77809380002D988FE599E00197B0
:100DE000F1F700C00000809180008068809380004F
:100DF0008FE193E00197F1F700C00000809180003F
:100E00008F77809380002D9887EE93E00197F1F71C
:100E100000C00000809180008068809380008FE196
:100E200093E00197F1F700C00000809180008F7778
:100E3000809380002D988FE396E00197F1F70C9452
:100E4000CF10833609F0F9C20E948800809180009B
:100E50008F77809380002D989FE720E082E091506B
:100E600020408040E1F700C000008FEE9AE001973B
:100E7000F1F700C0000080918000806880938000BE
:100E80008FE79EE30197F1F700C000008FEE9AE034
:100E90000197F1F700C00000809180008F77809368
:100EA00080002D988FE79EE30197F1F700C00000C6
:100EB0008FEC97E00197F1F700C00000809180006F
:100EC0008068809380008FE599E00197F1F700C07A
:100ED0000000809180008F77809380002D988FE9AB
:100EE0009FE00197F1F700C000008FEE9AE00197B4
:100EF000F1F700C00000809180008068809380003E
:100F00008FE599E00197F1F700C000008091800023
:100F10008F77809380002D988FE99FE00197F1F7FC
:100F200000C000008FEE9AE00197F1F700C00000CA
:100F3000809180008068809380008FE599E0019720
:100F4000F1F700C00000809180008F7780938000CF
:100F50002D988FE99FE00197F1F700C000008FEE18
:100F60009AE00197F1F700C000008091800080684E
:100F7000809380008FE599E00197F1F700C00000B1
:100F8000809180008F77809380002D9887E998E08A
:100F90000197F1F700C00000809180008068809385
:100FA00080008FE599E00197F1F700C00000809183
:100FB00080008F77809380002D9887E998E00197D3
:100FC000F1F700C00000809180008068809380006D
:100FD0008FE599E00197F1F700C000008091800053
:100FE0008F77809380002D9887E998E00197F1F73B
:100FF00000C00000809180008068809380008FE5B1
:1010000099E00197F1F700C00000809180008F7790
:10101000809380002D9887E998E00197F1F700C050
:101020000000809180008068809380008FE599E0C7
:101030000197F1F700C00000809180008F778093C6
:1010400080002D9887E998E00197F1F700C0000033
:10105000809180008068809380008FE599E00197FF
:10106000F1F700C00000809180008F7780938000AE
:101070002D988FE99FE00197F1F700C000008FEEF7
:101080009AE00197F1F700C000008091800080682D
:10109000809380008FE599E00197F1F700C0000090
:1010A000809180008F77809380002D988FE99FE05A
:1010B0000197F1F700C000008FEE9AE00197F1F779
:1010C00000C00000809180008068809380008FE5E0
:1010D00099E00197F1F700C00000809180008F77C0
:1010E000809380002D988FE99FE00197F1F700C071
:1010F00000008FEE9AE00197F1F700C000008091A8
:1011000080008068809380008FE599E00197F1F777
:1011100000C00000809180008F77809380002D9820
:1011200087E998E00197F1F700C000008091800006
:101130008068809380008FE599E00197F1F700C007
:101140000000809180008F77809380002D9887E940
:1011500098E00197F1F700C000008091800080685E
:10116000809380008FE599E00197F1F700C00000BF
:10117000809180008F77809380002D9887E998E098
:101180000197F1F700C00000809180008068809393
:1011900080008FE599E00197F1F700C00000809191
:1011A00080008F77809380002D9887E998E00197E1
:1011B000F1F700C00000809180008068809380007B
:1011C0008FE599E00197F1F700C000008091800061
:1011D0008F77809380002D9887E998E00197F1F749
:1011E00000C00000809180008068809380008FE5BF
:1011F00099E00197F1F700C00000809180008F779F
:10120000809380002D988FE99FE00197F1F700C04F
:1012100000008FEE9AE00197F1F700C00000809186
:1012200080008068809380008FE599E00197F1F756
:1012300000C00000809180008F77809380002D98FF
:101240008FE99FE00197F1F700C000008FEE9AE070
:101250000197F1F700C000008091800080688093C2
:1012600080008FE599E00197F1F700C000008091C0
:1012700080008F77809380002D988FE99FE0019701
:10128000F1F700C000008FEE9AE00197F1F700C07F
:101290000000809180008068809380008FE599E055
:1012A0000197F1F700C00000809180008F77809354
:1012B00080002D9887E998E00197F1F700C00000C1
:1012C000809180008068809380008FE599E001978D
:1012D000F1F700C00000809180008F77809380003C
:1012E0002D9887E998E00197F1F700C00000809100
:1012F00080008068809380008FE599E00197F1F786
:1013000000C00000809180008F77809380002D982E
:1013100087E998E00197F1F700C000008091800014
:101320008068809380008FE599E00197F1F700C015
:101330000000809180008F77809380002D9887E94E
:1013400098E00197F1F700C000008091800080686C
:10135000809380008FE599E00197F1F700C00000CD
:10136000809180008F77809380002D9887E998E0A6
:101370000197F1F700C000008091800080688093A1
:1013800080008FE599E00197F1F700C0000080919F
:1013900080008F77809380002D9887E998E00197EF
:1013A000F1F700C000008091800080688093800089
:1013B0008FE599E00197F1F700C00000809180006F
:1013C0008F77809380002D9887E998E00197F1F757
:1013D00000C00000809180008068809380008FE5CD
:1013E00099E00197F1F700C00000809180008F77AD
:1013F000809380002D9887E998E00197F1F700C06D
:101400000000809180008068809380008FE599E0E3
:101410000197F1F700C00000809180008F778093E2
:1014200080002D988FE99FE00197F1F700C0000040
:101430008FEE9AE00197F1F7F2C2843609F06FC39C
:101440000E948800809180008F77809380002D9883
:101450008FEF99EF0197F1F700C0000080918000B5
:101460008068809380008FE79EE30197F1F700C0CA
:1014700000008FEE9AE00197F1F700C00000809124
:1014800080008F77809380002D988FE79EE30197EF
:10149000F1F700C000008FEC97E00197F1F700C072
:1014A0000000809180008068809380008FE599E043
:1014B0000197F1F700C00000809180008F77809342
:1014C00080002D988FE99FE00197F1F700C00000A0
:1014D0008FEE9AE00197F1F700C000008091800044
:1014E0008068809380008FE599E00197F1F700C054
:1014F0000000809180008F77809380002D988FE985
:101500009FE00197F1F700C000008FEE9AE001978D
:10151000F1F700C000008091800080688093800017
:101520008FE599E00197F1F700C0000080918000FD
:101530008F77809380002D988FE99FE00197F1F7D6
:1015400000C000008FEE9AE00197F1F700C00000A4
:10155000809180008068809380008FE599E00197FA
:10156000F1F700C00000809180008F7780938000A9
:101570002D9887E998E00197F1F700C0000080916D
:1015800080008068809380008FE599E00197F1F7F3
:1015900000C00000809180008F77809380002D989C
:1015A00087E998E00197F1F700C000008091800082
:1015B0008068809380008FE599E00197F1F700C083
:1015C0000000809180008F77809380002D9887E9BC
:1015D00098E00197F1F700C00000809180008068DA
:1015E000809380008FE599E00197F1F700C000003B
:1015F000809180008F77809380002D9887E998E014
:101600000197F1F700C0000080918000806880930E
:1016100080008FE599E00197F1F700C0000080910C
:1016200080008F77809380002D9887E998E001975C
:10163000F1F700C0000080918000806880938000F6
:101640008FE599E00197F1F700C0000080918000DC
:101650008F77809380002D988FE99FE00197F1F7B5
:1016600000C000008FEE9AE00197F1F700C0000083
:10167000809180008068809380008FE599E00197D9
:10168000F1F700C00000809180008F778093800088
:101690002D988FE99FE00197F1F700C000008FEED1
:1016A0009AE00197F1F700C0000080918000806807
:1016B000809380008FE599E00197F1F700C000006A
:1016C000809180008F77809380002D988FE99FE034
:1016D0000197F1F700C000008FEE9AE00197F1F753
:1016E00000C00000809180008068809380008FE5BA
:1016F00099E00197F1F700C00000809180008F779A
:10170000809380002D9887E998E00197F1F700C059
:101710000000809180008068809380008FE599E0D0
:101720000197F1F700C00000809180008F778093CF
:1017300080002D9887E998E00197F1F700C000003C
:10174000809180008068809380008FE599E0019708
:10175000F1F700C00000809180008F7780938000B7
:101760002D9887E998E00197F1F700C0000080917B
:1017700080008068809380008FE599E00197F1F701
:1017800000C00000809180008F77809380002D98AA
:1017900087E998E00197F1F700C000008091800090
:1017A0008068809380008FE599E00197F1F700C091
:1017B0000000809180008F77809380002D9887E9CA
:1017C00098E00197F1F700C00000809180008068E8
:1017D000809380008FE599E00197F1F700C0000049
:1017E000809180008F77809380002D988FE99FE013
:1017F0000197F1F700C000008FEE9AE00197F1F732
:1018000000C00000809180008068809380008FE598
:1018100099E00197F1F700C00000809180008F7778
:10182000809380002D988FE99FE00197F1F700C029
:1018300000008FEE9AE00197F1F700C00000809160
:1018400080008068809380008FE599E00197F1F730
:1018500000C00000809180008F77809380002D98D9
:1018600087E998E00197F1F700C0000080918000BF
:101870008068809380008FE599E00197F1F700C0C0
:101880000000809180008F77809380002D988FE9F1
:101890009FE00197F1F700C000008FEE9AE00197FA
:1018A000F1F700C000008091800080688093800084
:1018B0008FE599E00197F1F700C00000809180006A
:1018C0008F77809380002D9887E998E00197F1F752
:1018D00000C00000809180008068809380008FE5C8
:1018E00099E00197F1F700C00000809180008F77A8
:1018F000809380002D9887E998E00197F1F700C068
:101900000000809180008068809380008FE599E0DE
:101910000197F1F700C00000809180008F778093DD
:1019200080002D9887E998E00197F1F700C000004A
:10193000809180008068809380008FE599E0019716
:10194000F1F700C00000809180008F7780938000C5
:101950002D9887E998E00197F1F700C00000809189
:1019600080008068809380008FE599E00197F1F70F
:1019700000C00000809180008F77809380002D98B8
:1019800087E998E00197F1F700C00000809180009E
:101990008068809380008FE599E00197F1F700C09F
:1019A0000000809180008F77809380002D9887E9D8
:1019B00098E00197F1F700C00000809180008068F6
:1019C000809380008FE599E00197F1F700C0000057
:1019D000809180008F77809380002D988FE99FE021
:1019E0000197F1F700C000008FEE9AE00197F1F740
:1019F00000C00000809180008068809380008FE5A7
:101A000099E00197F1F700C00000809180008F7786
:101A1000809380002D9887E998E00197F1F700C046
:101A20000000809180008068809380008FE599E0BD
:101A30000197F1F700C00000809180008F778093BC
:101A400080002D988FE99FE00197F1F700C000001A
:101A50008FEE9AE00197F1F700C0000080918000BE
:101A60008068809380008FE599E00197F1F700C0CE
:101A70000000809180008F77809380002D988FE9FF
:101A80009FE00197F1F700C000008FEE9AE0019708
:101A9000F1F700C000008091800080688093800092
:101AA0008FE599E00197F1F700C000008091800078
:101AB0008F77809380002D988FE99FE00197F1F751
:101AC00000C000008FEE9AE00197F1F700C000001F
:101AD000809180008068809380008FE599E0019775
:101AE000F1F700C00000809180008F778093800024
:101AF0002D988FE99FE00197F1F700C000008FEE6D
:101B00009AE00197F1F700C00000809180008068A2
:101B1000809380008FE599E00197F1F74BC3803700
:101B200009F050C30E948800809180008F778093D5
:101B300080002D989FEF27E582E091502040804063
:101B4000E1F700C000008FE396E00197F1F700C0D5
:101B50000000809180008068809380008FEC97E087
:101B60000197F1F700C00000809180008F7780938B
:101B700080002D9887EE93E00197F1F700C00000F8
:101B8000809180008068809380008FE193E00197CE
:101B9000F1F700C00000809180008F778093800073
:101BA0002D9887EE93E00197F1F700C00000809137
:101BB00080008068809380008FE193E00197F1F7C7
:101BC00000C00000809180008F77809380002D9866
:101BD0008FE599E00197F1F700C000008091800047
:101BE0008068809380008FE193E00197F1F700C057
:101BF0000000809180008F77809380002D988FE384
:101C000096E00197F1F700C00000809180008068A5
:101C1000809380008FE193E00197F1F700C000000E
:101C2000809180008F77809380002D988FE599E0D8
:101C30000197F1F700C000008091800080688093D8
:101C400080008FE193E00197F1F700C000008091E0
:101C500080008F77809380002D9887EE93E0019726
:101C6000F1F700C0000080918000806880938000C0
:101C70008FE193E00197F1F700C0000080918000B0
:101C80008F77809380002D9887EE93E00197F1F78E
:101C900000C00000809180008068809380008FE108
:101CA00093E00197F1F700C00000809180008F77EA
:101CB000809380002D9887EE93E00197F1F700C0A4
:101CC0000000809180008068809380008FE193E025
:101CD0000197F1F700C00000809180008F7780931A
:101CE00080002D9887EE93E00197F1F700C0000087
:101CF000809180008068809380008FE193E001975D
:101D0000F1F700C00000809180008F778093800001
:101D10002D988FE599E00197F1F700C000008091C0
:101D200080008068809380008FE193E00197F1F755
:101D300000C00000809180008F77809380002D98F4
:101D40008FE599E00197F1F700C0000080918000D5
:101D50008068809380008FE193E00197F1F700C0E5
:101D60000000809180008F77809380002D988FE312
:101D700096E00197F1F700C0000080918000806834
:101D8000809380008FE193E00197F1F700C000009D
:101D9000809180008F77809380002D988FE79CE062
:101DA0000197F1F700C00000809180008068809367
:101DB00080008FE193E00197F1F700C0000080916F
:101DC00080008F77809380002D9887EE93E00197B5
:101DD000F1F700C00000809180008068809380004F
:101DE0008FE193E00197F1F700C00000809180003F
:101DF0008F77809380002D9887EE93E00197F1F71D
:101E000000C00000809180008068809380008FE196
:101E100093E00197F1F700C00000809180008F7778
:101E2000809380002D988FE79CE00197F1F700C028
:101E30000000809180008068809380008FE193E0B3
:101E40000197F1F700C00000809180008F778093A8
:101E500080002D9887EE93E00197F1F700C0000015
:101E6000809180008068809380008FE193E00197EB
:101E7000F1F700C00000809180008F778093800090
:101E80002D989FEF24E481E0915020408040E1F7BD
:101E900000C00000809180008068809380008FECFB
:101EA00097E00197F1F700C00000809180008F77E4
:101EB000809380002D9887EE93E00197F1F700C0A2
:101EC0000000809180008068809380008FE193E023
:101ED0000197F1F700C00000809180008F77809318
:101EE00080002D9887EE93E00197F1F700C0000085
:101EF000809180008068809380008FE193E001975B
:101F0000F1F700C00000809180008F7780938000FF
:101F10002D988FE599E00197F1F700C000008091BE
:101F200080008068809380008FE193E00197F1F753
:101F300000C00000809180008F77809380002D98F2
:101F40008FE396E00197F1F700C0000080918000D8
:101F50008068809380008FE193E00197F1F700C0E3
:101F60000000809180008F77809380002D988FE50E
:101F700099E00197F1F700C000008091800080682F
:101F8000809380008FE193E00197F1F700C000009B
:101F9000809180008F77809380002D9887EE93E06A
:101FA0000197F1F700C00000809180008068809365
:101FB00080008FE193E00197F1F700C0000080916D
:101FC00080008F77809380002D9887EE93E00197B3
:101FD000F1F700C00000809180008068809380004D
:101FE0008FE193E00197F1F700C00000809180003D
:101FF0008F77809380002D9887EE93E00197F1F71B
:1020000000C00000809180008068809380008FE194
:1020100093E00197F1F700C00000809180008F7776
:10202000809380002D9887EE93E00197F1F700C030
:102030000000809180008068809380008FE193E0B1
:102040000197F1F700C00000809180008F778093A6
:1020500080002D988FE599E00197F1F700C000000E
:10206000809180008068809380008FE193E00197E9
:10207000F1F700C00000809180008F77809380008E
:102080002D988FE599E00197F1F700C0000080914D
:1020900080008068809380008FE193E00197F1F7E2
:1020A00000C00000809180008F77809380002D9881
:1020B0008FE396E00197F1F700C000008091800067
:1020C0008068809380008FE193E00197F1F700C072
:1020D0000000809180008F77809380002D988FE79B
:1020E0009CE00197F1F700C00000809180008068BB
:1020F000809380008FE193E00197F1F700C000002A
:10210000809180008F77809380002D9887EE93E0F8
:102110000197F1F700C000008091800080688093F3
:1021200080008FE193E00197F1F700C000008091FB
:1021300080008F77809380002D9887EE93E0019741
:10214000F1F700C0000080918000806880938000DB
:102150008FE193E00197F1F700C0000080918000CB
:102160008F77809380002D988FE79CE00197F1F79F
:1021700000C00000809180008068809380008FE123
:1021800093E00197F1F700C00000809180008F7705
:10219000809380002D9887EE93E00197F1F700C0BF
:1021A0000000809180008068809380008FE193E040
:1021B0000197F1F700C00000809180008F77809335
:1021C00080002D989FEF25EE8AEA915020408040B4
:1021D000E1F700C00000809100020E940D110C94F4
:1021E000A6001F920F920FB60F9211248F93809129
:1021F000C600809300028F910F900FBE0F901F902A
:1022000018951092C50087E68093C400E1ECF0E0D9
:10221000808188698083789408959091C00095FFAB
:0C222000FCCF8093C6000895F894FFCF17
:00000001FF
